{
  "contractName": "PharmaChain",
  "abi": [
    {
      "inputs": [],
      "stateMutability": "nonpayable",
      "type": "constructor"
    },
    {
      "anonymous": false,
      "inputs": [
        {
          "indexed": false,
          "internalType": "uint256",
          "name": "id",
          "type": "uint256"
        },
        {
          "indexed": false,
          "internalType": "int256",
          "name": "temp",
          "type": "int256"
        },
        {
          "indexed": false,
          "internalType": "bool",
          "name": "isSafe",
          "type": "bool"
        }
      ],
      "name": "TemperatureUpdated",
      "type": "event"
    },
    {
      "inputs": [],
      "name": "admin",
      "outputs": [
        {
          "internalType": "address",
          "name": "",
          "type": "address"
        }
      ],
      "stateMutability": "view",
      "type": "function",
      "constant": true
    },
    {
      "inputs": [],
      "name": "authorizedGateway",
      "outputs": [
        {
          "internalType": "address",
          "name": "",
          "type": "address"
        }
      ],
      "stateMutability": "view",
      "type": "function",
      "constant": true
    },
    {
      "inputs": [
        {
          "internalType": "uint256",
          "name": "",
          "type": "uint256"
        }
      ],
      "name": "batches",
      "outputs": [
        {
          "internalType": "string",
          "name": "name",
          "type": "string"
        },
        {
          "internalType": "address",
          "name": "manufacturer",
          "type": "address"
        },
        {
          "internalType": "bool",
          "name": "isSafe",
          "type": "bool"
        },
        {
          "internalType": "int256",
          "name": "lastTemp",
          "type": "int256"
        },
        {
          "internalType": "int256",
          "name": "maxTemp",
          "type": "int256"
        },
        {
          "internalType": "uint256",
          "name": "lastUpdate",
          "type": "uint256"
        }
      ],
      "stateMutability": "view",
      "type": "function",
      "constant": true
    },
    {
      "inputs": [
        {
          "internalType": "address",
          "name": "_newGateway",
          "type": "address"
        }
      ],
      "name": "setGateway",
      "outputs": [],
      "stateMutability": "nonpayable",
      "type": "function"
    },
    {
      "inputs": [
        {
          "internalType": "uint256",
          "name": "_id",
          "type": "uint256"
        },
        {
          "internalType": "string",
          "name": "_name",
          "type": "string"
        },
        {
          "internalType": "int256",
          "name": "_maxTemp",
          "type": "int256"
        }
      ],
      "name": "registerBatch",
      "outputs": [],
      "stateMutability": "nonpayable",
      "type": "function"
    },
    {
      "inputs": [
        {
          "internalType": "uint256",
          "name": "_id",
          "type": "uint256"
        },
        {
          "internalType": "int256",
          "name": "_temp",
          "type": "int256"
        }
      ],
      "name": "reportTemperature",
      "outputs": [],
      "stateMutability": "nonpayable",
      "type": "function"
    }
  ],
  "bytecode": "0x608060405234801561001057600080fd5b5033605060006101000a81548173ffffffffffffffffffffffffffffffffffffffff021916908373ffffffffffffffffffffffffffffffffffffffff16021790555033605160006101000a81548173ffffffffffffffffffffffffffffffffffffffff021916908373ffffffffffffffffffffffffffffffffffffffff160217905550610fd7806100a26000396000f3fe608060405234801561001057600080fd5b50600436106100625760003560e01c80630bde1d5114610067578063516afadb1461008357806390646b4a1461009f578063a20ac5e9146100bb578063b32c4d8d146100d9578063f851a4401461010e575b600080fd5b610081600480360381019061007c91906106fc565b61012c565b005b61009d60048036038101906100989190610882565b6102e6565b005b6100b960048036038101906100b4919061094f565b610465565b005b6100c3610539565b6040516100d0919061098b565b60405180910390f35b6100f360048036038101906100ee91906109a6565b61055f565b60405161010596959493929190610a8b565b60405180910390f35b610116610656565b604051610123919061098b565b60405180910390f35b605160009054906101000a900473ffffffffffffffffffffffffffffffffffffffff1673ffffffffffffffffffffffffffffffffffffffff163373ffffffffffffffffffffffffffffffffffffffff16146101bc576040517f08c379a00000000000000000000000000000000000000000000000000000000081526004016101b390610b3f565b60405180910390fd5b80600083601081106101d1576101d0610b5f565b5b600502016002018190555042600083601081106101f1576101f0610b5f565b5b60050201600401819055507ffffffffffffffffffffffffffffffffffffffffffffffffffffffffffffffc19811415801561024657506000826010811061023b5761023a610b5f565b5b600502016003015481135b1561027f5760008083601081106102605761025f610b5f565b5b6005020160010160146101000a81548160ff0219169083151502179055505b7fc3715c72589ad218bd2c10c124c97797d8b5cfe0dd54e0ce6eaec482ea409e318282600085601081106102b6576102b5610b5f565b5b6005020160010160149054906101000a900460ff166040516102da93929190610b8e565b60405180910390a15050565b60108310610329576040517f08c379a000000000000000000000000000000000000000000000000000000000815260040161032090610c11565b60405180910390fd5b816000846010811061033e5761033d610b5f565b5b6005020160000190816103519190610e3d565b50336000846010811061036757610366610b5f565b5b6005020160010160006101000a81548173ffffffffffffffffffffffffffffffffffffffff021916908373ffffffffffffffffffffffffffffffffffffffff1602179055506001600084601081106103c2576103c1610b5f565b5b6005020160010160146101000a81548160ff02191690831515021790555080600084601081106103f5576103f4610b5f565b5b60050201600301819055507ffffffffffffffffffffffffffffffffffffffffffffffffffffffffffffffc196000846010811061043557610434610b5f565b5b6005020160020181905550426000846010811061045557610454610b5f565b5b6005020160040181905550505050565b605060009054906101000a900473ffffffffffffffffffffffffffffffffffffffff1673ffffffffffffffffffffffffffffffffffffffff163373ffffffffffffffffffffffffffffffffffffffff16146104f5576040517f08c379a00000000000000000000000000000000000000000000000000000000081526004016104ec90610f81565b60405180910390fd5b80605160006101000a81548173ffffffffffffffffffffffffffffffffffffffff021916908373ffffffffffffffffffffffffffffffffffffffff16021790555050565b605160009054906101000a900473ffffffffffffffffffffffffffffffffffffffff1681565b6000816010811061056f57600080fd5b6005020160009150905080600001805461058890610c60565b80601f01602080910402602001604051908101604052809291908181526020018280546105b490610c60565b80156106015780601f106105d657610100808354040283529160200191610601565b820191906000526020600020905b8154815290600101906020018083116105e457829003601f168201915b5050505050908060010160009054906101000a900473ffffffffffffffffffffffffffffffffffffffff16908060010160149054906101000a900460ff16908060020154908060030154908060040154905086565b605060009054906101000a900473ffffffffffffffffffffffffffffffffffffffff1681565b6000604051905090565b600080fd5b600080fd5b6000819050919050565b6106a381610690565b81146106ae57600080fd5b50565b6000813590506106c08161069a565b92915050565b6000819050919050565b6106d9816106c6565b81146106e457600080fd5b50565b6000813590506106f6816106d0565b92915050565b6000806040838503121561071357610712610686565b5b6000610721858286016106b1565b9250506020610732858286016106e7565b9150509250929050565b600080fd5b600080fd5b6000601f19601f8301169050919050565b7f4e487b7100000000000000000000000000000000000000000000000000000000600052604160045260246000fd5b61078f82610746565b810181811067ffffffffffffffff821117156107ae576107ad610757565b5b80604052505050565b60006107c161067c565b90506107cd8282610786565b919050565b600067ffffffffffffffff8211156107ed576107ec610757565b5b6107f682610746565b9050602081019050919050565b82818337600083830152505050565b6000610825610820846107d2565b6107b7565b90508281526020810184848401111561084157610840610741565b5b61084c848285610803565b509392505050565b600082601f8301126108695761086861073c565b5b8135610879848260208601610812565b91505092915050565b60008060006060848603121561089b5761089a610686565b5b60006108a9868287016106b1565b935050602084013567ffffffffffffffff8111156108ca576108c961068b565b5b6108d686828701610854565b92505060406108e7868287016106e7565b9150509250925092565b600073ffffffffffffffffffffffffffffffffffffffff82169050919050565b600061091c826108f1565b9050919050565b61092c81610911565b811461093757600080fd5b50565b60008135905061094981610923565b92915050565b60006020828403121561096557610964610686565b5b60006109738482850161093a565b91505092915050565b61098581610911565b82525050565b60006020820190506109a0600083018461097c565b92915050565b6000602082840312156109bc576109bb610686565b5b60006109ca848285016106b1565b91505092915050565b600081519050919050565b600082825260208201905092915050565b60005b83811015610a0d5780820151818401526020810190506109f2565b60008484015250505050565b6000610a24826109d3565b610a2e81856109de565b9350610a3e8185602086016109ef565b610a4781610746565b840191505092915050565b60008115159050919050565b610a6781610a52565b82525050565b610a76816106c6565b82525050565b610a8581610690565b82525050565b600060c0820190508181036000830152610aa58189610a19565b9050610ab4602083018861097c565b610ac16040830187610a5e565b610ace6060830186610a6d565b610adb6080830185610a6d565b610ae860a0830184610a7c565b979650505050505050565b7f4163636573736f206e6f6e206175746f72697a7a61746f210000000000000000600082015250565b6000610b296018836109de565b9150610b3482610af3565b602082019050919050565b60006020820190508181036000830152610b5881610b1c565b9050919050565b7f4e487b7100000000000000000000000000000000000000000000000000000000600052603260045260246000fd5b6000606082019050610ba36000830186610a7c565b610bb06020830185610a6d565b610bbd6040830184610a5e565b949350505050565b7f49442066756f72692072616e6765000000000000000000000000000000000000600082015250565b6000610bfb600e836109de565b9150610c0682610bc5565b602082019050919050565b60006020820190508181036000830152610c2a81610bee565b9050919050565b7f4e487b7100000000000000000000000000000000000000000000000000000000600052602260045260246000fd5b60006002820490506001821680610c7857607f821691505b602082108103610c8b57610c8a610c31565b5b50919050565b60008190508160005260206000209050919050565b60006020601f8301049050919050565b600082821b905092915050565b600060088302610cf37fffffffffffffffffffffffffffffffffffffffffffffffffffffffffffffffff82610cb6565b610cfd8683610cb6565b95508019841693508086168417925050509392505050565b6000819050919050565b6000610d3a610d35610d3084610690565b610d15565b610690565b9050919050565b6000819050919050565b610d5483610d1f565b610d68610d6082610d41565b848454610cc3565b825550505050565b600090565b610d7d610d70565b610d88818484610d4b565b505050565b5b81811015610dac57610da1600082610d75565b600181019050610d8e565b5050565b601f821115610df157610dc281610c91565b610dcb84610ca6565b81016020851015610dda578190505b610dee610de685610ca6565b830182610d8d565b50505b505050565b600082821c905092915050565b6000610e1460001984600802610df6565b1980831691505092915050565b6000610e2d8383610e03565b9150826002028217905092915050565b610e46826109d3565b67ffffffffffffffff811115610e5f57610e5e610757565b5b610e698254610c60565b610e74828285610db0565b600060209050601f831160018114610ea75760008415610e95578287015190505b610e9f8582610e21565b865550610f07565b601f198416610eb586610c91565b60005b82811015610edd57848901518255600182019150602085019450602081019050610eb8565b86831015610efa5784890151610ef6601f891682610e03565b8355505b6001600288020188555050505b505050505050565b7f536f6c6f206c2761646d696e2070756f2067657374697265206c61207768697460008201527f656c697374000000000000000000000000000000000000000000000000000000602082015250565b6000610f6b6025836109de565b9150610f7682610f0f565b604082019050919050565b60006020820190508181036000830152610f9a81610f5e565b905091905056fea264697066735822122032625f883dd0d48d6f0ebe5164ec67f218737c5c014eb9602ed2b592f81bb15e64736f6c63430008150033",
  "immutableReferences": {},
  "source": "// SPDX-License-Identifier: MIT\npragma solidity ^0.8.21;\n\ncontract PharmaChain {\n    struct Batch {\n        string name;\n        address manufacturer;\n        bool isSafe;      \n        int256 lastTemp;  \n        int256 maxTemp; \n        uint256 lastUpdate; // Timestamp dell'ultima ricezione\n    }\n\n    Batch[16] public batches;\n    address public admin;\n    address public authorizedGateway; // Whitelist per la sicurezza [cite: 28]\n\n    event TemperatureUpdated(uint256 id, int256 temp, bool isSafe);\n\n    constructor() {\n        admin = msg.sender;\n        authorizedGateway = msg.sender; \n    }\n\n    function setGateway(address _newGateway) public {\n        require(msg.sender == admin, \"Solo l'admin puo gestire la whitelist\");\n        authorizedGateway = _newGateway;\n    }\n\n    function registerBatch(uint256 _id, string memory _name, int256 _maxTemp) public {\n        require(_id < 16, \"ID fuori range\");\n        batches[_id].name = _name;\n        batches[_id].manufacturer = msg.sender;\n        batches[_id].isSafe = true; \n        batches[_id].maxTemp = _maxTemp;\n        batches[_id].lastTemp = -999; // Stato OFFLINE iniziale\n        batches[_id].lastUpdate = block.timestamp; \n    }\n\n    function reportTemperature(uint256 _id, int256 _temp) public {\n        // Verifica identita autorizzata [cite: 47]\n        require(msg.sender == authorizedGateway, \"Accesso non autorizzato!\");\n        \n        batches[_id].lastTemp = _temp;\n        batches[_id].lastUpdate = block.timestamp; // Aggiornamento del \"battito cardiaco\"\n\n        if (_temp != -999 && _temp > batches[_id].maxTemp) {\n            batches[_id].isSafe = false;\n        }\n\n        emit TemperatureUpdated(_id, _temp, batches[_id].isSafe);\n    }\n}",
  "sourcePath": "/Users/davide/Desktop/PharmaGuard/contracts/PharmaChain.sol",
  "compiler": {
    "name": "solc",
    "version": "0.8.21+commit.d9974bed.Emscripten.clang"
  },
  "schemaVersion": "3.4.16",
  "updatedAt": "2026-02-16T12:19:53.285Z",
  "networkType": "ethereum",
  "devdoc": {
    "kind": "dev",
    "methods": {},
    "version": 1
  },
  "userdoc": {
    "kind": "user",
    "methods": {},
    "version": 1
  }
}